:0B005C00120067D281C282C283C28002
:10006700E4FDFCC3ED9FEE6480F8EC6480985007D4
:070077000DBD00010C80EC3F
:01007E00225F
:10000300E4FBD280C282C281C2837F307E7512003C
:1000130067D283C282C281C28012005CD282C28153
:100023001200630BBB0CDBE4FBC3EB6480948C50CA
:10003300CFD282C281C283C2807F307E7512005CC0
:10004300D283C282C281C280120067D280C282C2BE
:0900530081C2831200670B80D00A
:0300000002007F7C
:0C007F00787FE4F6D8FD758107020003CD
:00000001FF
