:0C08C4000A08BF86DBCFE6EDFD87FFEFE2
:1008AC00E4FDFCC3ED9FEE6480F8EC648098500787
:0708BC000DBD00010C80ECF2
:0108C3002212
:10088C00E4FBEBC3940A7480948050F475A00F744D
:10089C00082BF8E6F5807F307E751208AC0B80E2F1
:03000000020800F3
:0C080000787FE4F6D8FD758111020847EE
:10080C0002088CE493A3F8E493A34003F68001F26E
:10081C0008DFF48029E493A3F85407240CC8C333ED
:10082C00C4540F4420C8834004F456800146F6DFBC
:10083C00E4800B01020408102040809008C4E47E80
:10084C00019360BCA3FF543F30E509541FFEE493B1
:10085C00A360010ECF54C025E060A840B8E493A378
:10086C00FAE493A3F8E493A3C8C582C8CAC583CAA3
:10087C00F0A3C8C582C8CAC583CADFE9DEE780BE5B
:0108D0000027
:00000001FF
