:06007400F5807F307E756F
:10007A00E4FDFCC3ED9FEE6480F8EC6480985007C1
:07008A000DBD00010C80EC2C
:01009100224C
:10000300E4FBF58075800F1200767580F012007A9C
:100013007580AA12007A75805512007A75800112D4
:10002300007AE4FBE58025E01200740BBB08F5754C
:100033008080120076E4FBE580C3131200740BBBCF
:1000430008F5758001120076E4FBE58025E04401A4
:100053001200740BBB08F3758080120076E4FBEB8F
:10006300D39407509FE580C31344801200740B8020
:01007300EE9E
:0300000002009269
:0C009200787FE4F6D8FD758107020003BA
:00000001FF
